{
  "_format": "hh-sol-artifact-1",
  "contractName": "TheLaVieBoard",
  "sourceName": "contracts/LaVieboard.sol",
  "abi": [
    {
      "inputs": [],
      "stateMutability": "nonpayable",
      "type": "constructor"
    },
    {
      "anonymous": false,
      "inputs": [
        {
          "indexed": true,
          "internalType": "address",
          "name": "owner",
          "type": "address"
        },
        {
          "indexed": true,
          "internalType": "address",
          "name": "approved",
          "type": "address"
        },
        {
          "indexed": true,
          "internalType": "uint256",
          "name": "tokenId",
          "type": "uint256"
        }
      ],
      "name": "Approval",
      "type": "event"
    },
    {
      "anonymous": false,
      "inputs": [
        {
          "indexed": true,
          "internalType": "address",
          "name": "owner",
          "type": "address"
        },
        {
          "indexed": true,
          "internalType": "address",
          "name": "operator",
          "type": "address"
        },
        {
          "indexed": false,
          "internalType": "bool",
          "name": "approved",
          "type": "bool"
        }
      ],
      "name": "ApprovalForAll",
      "type": "event"
    },
    {
      "anonymous": false,
      "inputs": [
        {
          "indexed": false,
          "internalType": "string",
          "name": "first",
          "type": "string"
        },
        {
          "indexed": false,
          "internalType": "string",
          "name": "second",
          "type": "string"
        },
        {
          "indexed": false,
          "internalType": "string",
          "name": "third",
          "type": "string"
        },
        {
          "indexed": false,
          "internalType": "uint256",
          "name": "price",
          "type": "uint256"
        },
        {
          "indexed": true,
          "internalType": "address",
          "name": "by",
          "type": "address"
        }
      ],
      "name": "LaVieBoardUpdated",
      "type": "event"
    },
    {
      "anonymous": false,
      "inputs": [
        {
          "indexed": true,
          "internalType": "address",
          "name": "from",
          "type": "address"
        },
        {
          "indexed": true,
          "internalType": "address",
          "name": "to",
          "type": "address"
        },
        {
          "indexed": true,
          "internalType": "uint256",
          "name": "tokenId",
          "type": "uint256"
        }
      ],
      "name": "Transfer",
      "type": "event"
    },
    {
      "inputs": [
        {
          "internalType": "address",
          "name": "to",
          "type": "address"
        },
        {
          "internalType": "uint256",
          "name": "tokenId",
          "type": "uint256"
        }
      ],
      "name": "approve",
      "outputs": [],
      "stateMutability": "nonpayable",
      "type": "function"
    },
    {
      "inputs": [
        {
          "internalType": "address",
          "name": "owner",
          "type": "address"
        }
      ],
      "name": "balanceOf",
      "outputs": [
        {
          "internalType": "uint256",
          "name": "",
          "type": "uint256"
        }
      ],
      "stateMutability": "view",
      "type": "function"
    },
    {
      "inputs": [],
      "name": "fetchBoardInfo",
      "outputs": [
        {
          "internalType": "string[5][]",
          "name": "",
          "type": "string[5][]"
        }
      ],
      "stateMutability": "view",
      "type": "function"
    },
    {
      "inputs": [
        {
          "internalType": "uint256",
          "name": "tokenId",
          "type": "uint256"
        }
      ],
      "name": "getApproved",
      "outputs": [
        {
          "internalType": "address",
          "name": "",
          "type": "address"
        }
      ],
      "stateMutability": "view",
      "type": "function"
    },
    {
      "inputs": [],
      "name": "getCurrentPrice",
      "outputs": [
        {
          "internalType": "uint256",
          "name": "",
          "type": "uint256"
        }
      ],
      "stateMutability": "view",
      "type": "function"
    },
    {
      "inputs": [
        {
          "internalType": "uint256",
          "name": "",
          "type": "uint256"
        },
        {
          "internalType": "uint256",
          "name": "",
          "type": "uint256"
        }
      ],
      "name": "idToBoardInfo",
      "outputs": [
        {
          "internalType": "string",
          "name": "",
          "type": "string"
        }
      ],
      "stateMutability": "view",
      "type": "function"
    },
    {
      "inputs": [],
      "name": "index",
      "outputs": [
        {
          "internalType": "uint256",
          "name": "",
          "type": "uint256"
        }
      ],
      "stateMutability": "view",
      "type": "function"
    },
    {
      "inputs": [
        {
          "internalType": "address",
          "name": "owner",
          "type": "address"
        },
        {
          "internalType": "address",
          "name": "operator",
          "type": "address"
        }
      ],
      "name": "isApprovedForAll",
      "outputs": [
        {
          "internalType": "bool",
          "name": "",
          "type": "bool"
        }
      ],
      "stateMutability": "view",
      "type": "function"
    },
    {
      "inputs": [],
      "name": "name",
      "outputs": [
        {
          "internalType": "string",
          "name": "",
          "type": "string"
        }
      ],
      "stateMutability": "view",
      "type": "function"
    },
    {
      "inputs": [],
      "name": "owner",
      "outputs": [
        {
          "internalType": "address",
          "name": "",
          "type": "address"
        }
      ],
      "stateMutability": "view",
      "type": "function"
    },
    {
      "inputs": [
        {
          "internalType": "uint256",
          "name": "tokenId",
          "type": "uint256"
        }
      ],
      "name": "ownerOf",
      "outputs": [
        {
          "internalType": "address",
          "name": "",
          "type": "address"
        }
      ],
      "stateMutability": "view",
      "type": "function"
    },
    {
      "inputs": [
        {
          "internalType": "address",
          "name": "from",
          "type": "address"
        },
        {
          "internalType": "address",
          "name": "to",
          "type": "address"
        },
        {
          "internalType": "uint256",
          "name": "tokenId",
          "type": "uint256"
        }
      ],
      "name": "safeTransferFrom",
      "outputs": [],
      "stateMutability": "nonpayable",
      "type": "function"
    },
    {
      "inputs": [
        {
          "internalType": "address",
          "name": "from",
          "type": "address"
        },
        {
          "internalType": "address",
          "name": "to",
          "type": "address"
        },
        {
          "internalType": "uint256",
          "name": "tokenId",
          "type": "uint256"
        },
        {
          "internalType": "bytes",
          "name": "_data",
          "type": "bytes"
        }
      ],
      "name": "safeTransferFrom",
      "outputs": [],
      "stateMutability": "nonpayable",
      "type": "function"
    },
    {
      "inputs": [
        {
          "internalType": "address",
          "name": "operator",
          "type": "address"
        },
        {
          "internalType": "bool",
          "name": "approved",
          "type": "bool"
        }
      ],
      "name": "setApprovalForAll",
      "outputs": [],
      "stateMutability": "nonpayable",
      "type": "function"
    },
    {
      "inputs": [],
      "name": "storedFirstLine",
      "outputs": [
        {
          "internalType": "string",
          "name": "",
          "type": "string"
        }
      ],
      "stateMutability": "view",
      "type": "function"
    },
    {
      "inputs": [],
      "name": "storedSecondLine",
      "outputs": [
        {
          "internalType": "string",
          "name": "",
          "type": "string"
        }
      ],
      "stateMutability": "view",
      "type": "function"
    },
    {
      "inputs": [],
      "name": "storedThirdLine",
      "outputs": [
        {
          "internalType": "string",
          "name": "",
          "type": "string"
        }
      ],
      "stateMutability": "view",
      "type": "function"
    },
    {
      "inputs": [
        {
          "internalType": "bytes4",
          "name": "interfaceId",
          "type": "bytes4"
        }
      ],
      "name": "supportsInterface",
      "outputs": [
        {
          "internalType": "bool",
          "name": "",
          "type": "bool"
        }
      ],
      "stateMutability": "view",
      "type": "function"
    },
    {
      "inputs": [],
      "name": "symbol",
      "outputs": [
        {
          "internalType": "string",
          "name": "",
          "type": "string"
        }
      ],
      "stateMutability": "view",
      "type": "function"
    },
    {
      "inputs": [
        {
          "internalType": "uint256",
          "name": "tokenId",
          "type": "uint256"
        }
      ],
      "name": "tokenURI",
      "outputs": [
        {
          "internalType": "string",
          "name": "",
          "type": "string"
        }
      ],
      "stateMutability": "view",
      "type": "function"
    },
    {
      "inputs": [],
      "name": "totalSupply",
      "outputs": [
        {
          "internalType": "uint256",
          "name": "",
          "type": "uint256"
        }
      ],
      "stateMutability": "pure",
      "type": "function"
    },
    {
      "inputs": [
        {
          "internalType": "address",
          "name": "from",
          "type": "address"
        },
        {
          "internalType": "address",
          "name": "to",
          "type": "address"
        },
        {
          "internalType": "uint256",
          "name": "tokenId",
          "type": "uint256"
        }
      ],
      "name": "transferFrom",
      "outputs": [],
      "stateMutability": "nonpayable",
      "type": "function"
    },
    {
      "inputs": [
        {
          "internalType": "string",
          "name": "firstLine",
          "type": "string"
        },
        {
          "internalType": "string",
          "name": "secondLine",
          "type": "string"
        },
        {
          "internalType": "string",
          "name": "thirdLine",
          "type": "string"
        },
        {
          "internalType": "uint256",
          "name": "amount",
          "type": "uint256"
        }
      ],
      "name": "updateLaVieBoard",
      "outputs": [],
      "stateMutability": "nonpayable",
      "type": "function"
    },
    {
      "inputs": [
        {
          "internalType": "address payable",
          "name": "sendToAddress",
          "type": "address"
        },
        {
          "internalType": "uint256",
          "name": "amount",
          "type": "uint256"
        }
      ],
      "name": "withdraw",
      "outputs": [],
      "stateMutability": "nonpayable",
      "type": "function"
    }
  ],
  "bytecode": "0x6000600781905560a0604081905260808290526200002191600891906200048c565b5060408051602081019182905260009081905262000042916009916200048c565b506040805160208101918290526000908190526200006391600a916200048c565b506000600c553480156200007657600080fd5b50604080518082018252600b81526a1318559a5948109bd85c9960aa1b60208083019182528351808501909452600a84526913105592515093d0549160b21b908401528151919291620000cc916000916200048c565b508051620000e29060019060208401906200048c565b5050600d80546001600160a01b03191633908117909155620001079150600162000133565b600e80546001600160a01b0319167371b4f145617410ee50dc26d224d202e9278d71f11790556200063e565b620001558282604051806020016040528060008152506200015960201b60201c565b5050565b620001658383620001d5565b6200017460008484846200031d565b620001d05760405162461bcd60e51b815260206004820152603260248201526000805160206200347683398151915260448201527131b2b4bb32b91034b6b83632b6b2b73a32b960711b60648201526084015b60405180910390fd5b505050565b6001600160a01b0382166200022d5760405162461bcd60e51b815260206004820181905260248201527f4552433732313a206d696e7420746f20746865207a65726f20616464726573736044820152606401620001c7565b6000818152600260205260409020546001600160a01b031615620002945760405162461bcd60e51b815260206004820152601c60248201527f4552433732313a20746f6b656e20616c7265616479206d696e746564000000006044820152606401620001c7565b6001600160a01b0382166000908152600360205260408120805460019290620002bf908490620005dc565b909155505060008181526002602052604080822080546001600160a01b0319166001600160a01b03861690811790915590518392907fddf252ad1be2c89b69c2b068fc378daa952ba7f163c4a11628f55a4df523b3ef908290a45050565b60006200033e846001600160a01b03166200048660201b620016fd1760201c565b156200047a57604051630a85bd0160e11b81526001600160a01b0385169063150b7a02906200037890339089908890889060040162000563565b602060405180830381600087803b1580156200039357600080fd5b505af1925050508015620003c6575060408051601f3d908101601f19168201909252620003c39181019062000532565b60015b6200045f573d808015620003f7576040519150601f19603f3d011682016040523d82523d6000602084013e620003fc565b606091505b508051620004575760405162461bcd60e51b815260206004820152603260248201526000805160206200347683398151915260448201527131b2b4bb32b91034b6b83632b6b2b73a32b960711b6064820152608401620001c7565b805181602001fd5b6001600160e01b031916630a85bd0160e11b1490506200047e565b5060015b949350505050565b3b151590565b8280546200049a9062000601565b90600052602060002090601f016020900481019282620004be576000855562000509565b82601f10620004d957805160ff191683800117855562000509565b8280016001018555821562000509579182015b8281111562000509578251825591602001919060010190620004ec565b50620005179291506200051b565b5090565b5b808211156200051757600081556001016200051c565b60006020828403121562000544578081fd5b81516001600160e01b0319811681146200055c578182fd5b9392505050565b600060018060a01b0380871683526020818716818501528560408501526080606085015284519150816080850152825b82811015620005b15785810182015185820160a00152810162000593565b82811115620005c3578360a084870101525b5050601f01601f19169190910160a00195945050505050565b60008219821115620005fc57634e487b7160e01b81526011600452602481fd5b500190565b600181811c908216806200061657607f821691505b602082108114156200063857634e487b7160e01b600052602260045260246000fd5b50919050565b612e28806200064e6000396000f3fe608060405234801561001057600080fd5b50600436106101585760003560e01c80636d37deeb116100c3578063ad906f371161007c578063ad906f37146102ac578063b88d4fde146102c1578063c87b56dd146102d4578063e985e9c5146102e7578063eb91d37e146102fa578063f3fef3a31461030257600080fd5b80636d37deeb1461025b57806370a08231146102635780638da5cb5b1461027657806395d89b41146102895780639fb106ba14610291578063a22cb4651461029957600080fd5b80631dccaa91116101155780631dccaa91146101f357806323b872dd146102065780632986c0e51461021957806342842e0e146102225780634cc3e47e146102355780636352211e1461024857600080fd5b806301ffc9a71461015d57806306fdde0314610185578063081812fc1461019a578063095ea7b3146101c557806318160ddd146101da5780631b81deeb146101eb575b600080fd5b61017061016b366004612377565b610315565b60405190151581526020015b60405180910390f35b61018d610367565b60405161017c91906127ca565b6101ad6101a836600461243b565b6103f9565b6040516001600160a01b03909116815260200161017c565b6101d86101d3366004612349565b610493565b005b60015b60405190815260200161017c565b61018d6105a9565b6101d86102013660046123af565b610637565b6101d861021436600461225f565b610a05565b6101dd600c5481565b6101d861023036600461225f565b610a36565b61018d61024336600461246b565b610a51565b6101ad61025636600461243b565b610a7d565b61018d610af4565b6101dd6102713660046121e0565b610b01565b600d546101ad906001600160a01b031681565b61018d610b88565b61018d610b97565b6101d86102a736600461231c565b610ba4565b6102b4610c69565b60405161017c919061273c565b6101d86102cf36600461229f565b61127a565b61018d6102e236600461243b565b6112b2565b6101706102f5366004612227565b611528565b6007546101dd565b6101d86103103660046121fc565b611556565b60006001600160e01b031982166380ac58cd60e01b148061034657506001600160e01b03198216635b5e139f60e01b145b8061036157506301ffc9a760e01b6001600160e01b03198316145b92915050565b60606000805461037690612acf565b80601f01602080910402602001604051908101604052809291908181526020018280546103a290612acf565b80156103ef5780601f106103c4576101008083540402835291602001916103ef565b820191906000526020600020905b8154815290600101906020018083116103d257829003601f168201915b5050505050905090565b6000818152600260205260408120546001600160a01b03166104775760405162461bcd60e51b815260206004820152602c60248201527f4552433732313a20617070726f76656420717565727920666f72206e6f6e657860448201526b34b9ba32b73a103a37b5b2b760a11b60648201526084015b60405180910390fd5b506000908152600460205260409020546001600160a01b031690565b600061049e82610a7d565b9050806001600160a01b0316836001600160a01b0316141561050c5760405162461bcd60e51b815260206004820152602160248201527f4552433732313a20617070726f76616c20746f2063757272656e74206f776e656044820152603960f91b606482015260840161046e565b336001600160a01b038216148061052857506105288133611528565b61059a5760405162461bcd60e51b815260206004820152603860248201527f4552433732313a20617070726f76652063616c6c6572206973206e6f74206f7760448201527f6e6572206e6f7220617070726f76656420666f7220616c6c0000000000000000606482015260840161046e565b6105a48383611703565b505050565b600980546105b690612acf565b80601f01602080910402602001604051908101604052809291908181526020018280546105e290612acf565b801561062f5780601f106106045761010080835404028352916020019161062f565b820191906000526020600020905b81548152906001019060200180831161061257829003601f168201915b505050505081565b60075481116106885760405162461bcd60e51b815260206004820152601e60248201527f6e6f7420656e6f756768204c6156782073656e7420746f207570646174650000604482015260640161046e565b600e546040516370a0823160e01b815233600482015282916001600160a01b0316906370a082319060240160206040518083038186803b1580156106cb57600080fd5b505afa1580156106df573d6000803e3d6000fd5b505050506040513d601f19601f820116820180604052508101906107039190612453565b101561075b5760405162461bcd60e51b815260206004820152602160248201527f796f7520646f6e2774206f776e20656e6f756768204c61567820746f6b656e736044820152602160f81b606482015260840161046e565b6032845111156107b75760405162461bcd60e51b815260206004820152602160248201527f6669727374206c696e652063616e206265206f66203530206279746573206d616044820152600f60fb1b606482015260840161046e565b6032835111156108145760405162461bcd60e51b815260206004820152602260248201527f7365636f6e64206c696e652063616e206265206f66203530206279746573206d6044820152610c2f60f31b606482015260840161046e565b6032825111156108705760405162461bcd60e51b815260206004820152602160248201527f7468697264206c696e652063616e206265206f66203530206279746573206d616044820152600f60fb1b606482015260840161046e565b8351610883906008906020870190611fe1565b508251610897906009906020860190611fe1565b5081516108ab90600a906020850190611fe1565b50600e546040516323b872dd60e01b8152336004820152306024820152604481018390526001600160a01b03909116906323b872dd90606401602060405180830381600087803b1580156108fe57600080fd5b505af1158015610912573d6000803e3d6000fd5b505050506040513d601f19601f82011682018060405250810190610936919061235b565b506007819055600061094733611771565b90506000610954836118d4565b90506040518060a0016040528083815260200187815260200186815260200185815260200182815250600b6000600c5481526020019081526020016000209060056109a0929190612065565b50600c80549060006109b183612b04565b9190505550336001600160a01b03167f3032c56c1ea3462e942419a62c9c5e8d7a01cc69baaa72552f259edadecc9bf8878787876040516109f594939291906127dd565b60405180910390a2505050505050565b610a0f3382611a19565b610a2b5760405162461bcd60e51b815260040161046e9061287a565b6105a4838383611af0565b6105a48383836040518060200160405280600081525061127a565b600b6020528160005260406000208160058110610a6d57600080fd5b0180549092506105b69150612acf565b6000818152600260205260408120546001600160a01b0316806103615760405162461bcd60e51b815260206004820152602960248201527f4552433732313a206f776e657220717565727920666f72206e6f6e657869737460448201526832b73a103a37b5b2b760b91b606482015260840161046e565b600a80546105b690612acf565b60006001600160a01b038216610b6c5760405162461bcd60e51b815260206004820152602a60248201527f4552433732313a2062616c616e636520717565727920666f7220746865207a65604482015269726f206164647265737360b01b606482015260840161046e565b506001600160a01b031660009081526003602052604090205490565b60606001805461037690612acf565b600880546105b690612acf565b6001600160a01b038216331415610bfd5760405162461bcd60e51b815260206004820152601960248201527f4552433732313a20617070726f766520746f2063616c6c657200000000000000604482015260640161046e565b3360008181526005602090815260408083206001600160a01b03871680855290835292819020805460ff191686151590811790915590519081529192917f17307eab39ab6107e8899845ad3d59bd9653f200f220920489ca2b5937696c31910160405180910390a35050565b60606000600c5467ffffffffffffffff811115610c9657634e487b7160e01b600052604160045260246000fd5b604051908082528060200260200182016040528015610ccf57816020015b610cbc6120b1565b815260200190600190039081610cb45790505b50905060005b600c54811015611274576000818152600b602052604090208054610cf890612acf565b80601f0160208091040260200160405190810160405280929190818152602001828054610d2490612acf565b8015610d715780601f10610d4657610100808354040283529160200191610d71565b820191906000526020600020905b815481529060010190602001808311610d5457829003601f168201915b5050505050828281518110610d9657634e487b7160e01b600052603260045260246000fd5b6020026020010151600060058110610dbe57634e487b7160e01b600052603260045260246000fd5b602090810291909101919091526000828152600b909152604090206001018054610de790612acf565b80601f0160208091040260200160405190810160405280929190818152602001828054610e1390612acf565b8015610e605780601f10610e3557610100808354040283529160200191610e60565b820191906000526020600020905b815481529060010190602001808311610e4357829003601f168201915b5050505050828281518110610e8557634e487b7160e01b600052603260045260246000fd5b6020026020010151600160058110610ead57634e487b7160e01b600052603260045260246000fd5b602090810291909101919091526000828152600b909152604090206002018054610ed690612acf565b80601f0160208091040260200160405190810160405280929190818152602001828054610f0290612acf565b8015610f4f5780601f10610f2457610100808354040283529160200191610f4f565b820191906000526020600020905b815481529060010190602001808311610f3257829003601f168201915b5050505050828281518110610f7457634e487b7160e01b600052603260045260246000fd5b6020026020010151600260058110610f9c57634e487b7160e01b600052603260045260246000fd5b602090810291909101919091526000828152600b909152604090206003018054610fc590612acf565b80601f0160208091040260200160405190810160405280929190818152602001828054610ff190612acf565b801561103e5780601f106110135761010080835404028352916020019161103e565b820191906000526020600020905b81548152906001019060200180831161102157829003601f168201915b505050505082828151811061106357634e487b7160e01b600052603260045260246000fd5b602002602001015160036005811061108b57634e487b7160e01b600052603260045260246000fd5b602090810291909101919091526000828152600b9091526040902060040180546110b490612acf565b80601f01602080910402602001604051908101604052809291908181526020018280546110e090612acf565b801561112d5780601f106111025761010080835404028352916020019161112d565b820191906000526020600020905b81548152906001019060200180831161111057829003601f168201915b505050505082828151811061115257634e487b7160e01b600052603260045260246000fd5b602002602001015160046005811061117a57634e487b7160e01b600052603260045260246000fd5b602090810291909101919091526004600052600b90526112627f12d0c11577e2f0950f57c455c117796550b79f444811db8ba2f69c57b646c78482600581106111d357634e487b7160e01b600052603260045260246000fd5b0180546111df90612acf565b80601f016020809104026020016040519081016040528092919081815260200182805461120b90612acf565b80156112585780601f1061122d57610100808354040283529160200191611258565b820191906000526020600020905b81548152906001019060200180831161123b57829003601f168201915b5050505050611c90565b8061126c81612b04565b915050610cd5565b50919050565b6112843383611a19565b6112a05760405162461bcd60e51b815260040161046e9061287a565b6112ac84848484611cd6565b50505050565b6000818152600260205260409020546060906001600160a01b03166113315760405162461bcd60e51b815260206004820152602f60248201527f4552433732314d657461646174613a2055524920717565727920666f72206e6f60448201526e3732bc34b9ba32b73a103a37b5b2b760891b606482015260840161046e565b600060405180610120016040528060e18152602001612b9b60e19139905060006040518060400160405280601081526020016f3c7465787420783d273530252720793d60801b815250905060006040518060600160405280603e8152602001612db5603e91399050600060405180610120016040528060f98152602001612c7c60f991396040805160208082018352600080835283518083018552818152845192830190945281526008805494955091939091906113ee90612acf565b15905061141d578585600860405160200161140b93929190612652565b60405160208183030381529060405292505b6009805461142a90612acf565b159050611459578585600960405160200161144793929190612686565b60405160208183030381529060405291505b600a805461146690612acf565b159050611495578585600a604051602001611483939291906125f4565b60405160208183030381529060405290505b6000878484846040516020016114ae9493929190612550565b604051602081830303815290604052905060006114f3866114ce84611d09565b6040516020016114df9291906125b8565b604051602081830303815290604052611d09565b905060008160405160200161150891906126ba565b60408051601f198184030181529190529c9b505050505050505050505050565b6001600160a01b03918216600090815260056020908152604080832093909416825291909152205460ff1690565b6115606001610a7d565b6001600160a01b0316336001600160a01b0316146115b85760405162461bcd60e51b81526020600482015260156024820152743cb7ba9030b932903737ba103a34329037bbb732b960591b604482015260640161046e565b600e546040516370a0823160e01b81523060048201526001600160a01b03909116906370a082319060240160206040518083038186803b1580156115fb57600080fd5b505afa15801561160f573d6000803e3d6000fd5b505050506040513d601f19601f820116820180604052508101906116339190612453565b8111156116775760405162461bcd60e51b81526020600482015260126024820152716e6f7420656e6f7567682062616c616e636560701b604482015260640161046e565b600e5460405163a9059cbb60e01b81526001600160a01b038481166004830152602482018490529091169063a9059cbb90604401602060405180830381600087803b1580156116c557600080fd5b505af11580156116d9573d6000803e3d6000fd5b505050506040513d601f19601f820116820180604052508101906105a4919061235b565b3b151590565b600081815260046020526040902080546001600160a01b0319166001600160a01b038416908117909155819061173882610a7d565b6001600160a01b03167f8c5be1e5ebec7d5bd14f71427d1e84f3dd0314c0f7b2291e5b200ac8c7c3b92560405160405180910390a45050565b60408051602880825260608281019093526000919060208201818036833701905050905060005b60148110156118cd5760006117ae826013612a69565b6117b9906008612a29565b6117c4906002612981565b6117d7906001600160a01b038716612908565b60f81b9050600060108260f81c6117ee919061291c565b60f81b905060008160f81c60106118059190612a48565b8360f81c6118139190612a80565b60f81b905061182182611e7d565b8561182d866002612a29565b8151811061184b57634e487b7160e01b600052603260045260246000fd5b60200101906001600160f81b031916908160001a90535061186b81611e7d565b85611877866002612a29565b6118829060016128cb565b815181106118a057634e487b7160e01b600052603260045260246000fd5b60200101906001600160f81b031916908160001a90535050505080806118c590612b04565b915050611798565b5092915050565b6060816118f85750506040805180820190915260018152600360fc1b602082015290565b8160005b8115611922578061190c81612b04565b915061191b9050600a83612908565b91506118fc565b60008167ffffffffffffffff81111561194b57634e487b7160e01b600052604160045260246000fd5b6040519080825280601f01601f191660200182016040528015611975576020820181803683370190505b509050815b8515611a105761198b600182612a69565b9050600061199a600a88612908565b6119a590600a612a29565b6119af9088612a69565b6119ba9060306128e3565b905060008160f81b9050808484815181106119e557634e487b7160e01b600052603260045260246000fd5b60200101906001600160f81b031916908160001a905350611a07600a89612908565b9750505061197a565b50949350505050565b6000818152600260205260408120546001600160a01b0316611a925760405162461bcd60e51b815260206004820152602c60248201527f4552433732313a206f70657261746f7220717565727920666f72206e6f6e657860448201526b34b9ba32b73a103a37b5b2b760a11b606482015260840161046e565b6000611a9d83610a7d565b9050806001600160a01b0316846001600160a01b03161480611ad85750836001600160a01b0316611acd846103f9565b6001600160a01b0316145b80611ae85750611ae88185611528565b949350505050565b826001600160a01b0316611b0382610a7d565b6001600160a01b031614611b6b5760405162461bcd60e51b815260206004820152602960248201527f4552433732313a207472616e73666572206f6620746f6b656e2074686174206960448201526839903737ba1037bbb760b91b606482015260840161046e565b6001600160a01b038216611bcd5760405162461bcd60e51b8152602060048201526024808201527f4552433732313a207472616e7366657220746f20746865207a65726f206164646044820152637265737360e01b606482015260840161046e565b611bd8600082611703565b6001600160a01b0383166000908152600360205260408120805460019290611c01908490612a69565b90915550506001600160a01b0382166000908152600360205260408120805460019290611c2f9084906128cb565b909155505060008181526002602052604080822080546001600160a01b0319166001600160a01b0386811691821790925591518493918716917fddf252ad1be2c89b69c2b068fc378daa952ba7f163c4a11628f55a4df523b3ef91a4505050565b611cd381604051602401611ca491906127ca565b60408051601f198184030181529190526020810180516001600160e01b031663104c13eb60e21b179052611eb3565b50565b611ce1848484611af0565b611ced84848484611ed4565b6112ac5760405162461bcd60e51b815260040161046e90612828565b805160609080611d29575050604080516020810190915260008152919050565b60006003611d388360026128cb565b611d429190612908565b611d4d906004612a29565b90506000611d5c8260206128cb565b67ffffffffffffffff811115611d8257634e487b7160e01b600052604160045260246000fd5b6040519080825280601f01601f191660200182016040528015611dac576020820181803683370190505b5090506000604051806060016040528060408152602001612d75604091399050600181016020830160005b86811015611e38576003818a01810151603f601282901c8116860151600c83901c8216870151600684901c831688015192909316870151600891821b60ff94851601821b92841692909201901b91160160e01b835260049092019101611dd7565b506003860660018114611e525760028114611e6357611e6f565b613d3d60f01b600119830152611e6f565b603d60f81b6000198301525b505050918152949350505050565b6000600a60f883901c1015611ea457611e9b60f883901c60306128e3565b60f81b92915050565b611e9b60f883901c60576128e3565b80516a636f6e736f6c652e6c6f67602083016000808483855afa5050505050565b60006001600160a01b0384163b15611fd657604051630a85bd0160e11b81526001600160a01b0385169063150b7a0290611f189033908990889088906004016126ff565b602060405180830381600087803b158015611f3257600080fd5b505af1925050508015611f62575060408051601f3d908101601f19168201909252611f5f91810190612393565b60015b611fbc573d808015611f90576040519150601f19603f3d011682016040523d82523d6000602084013e611f95565b606091505b508051611fb45760405162461bcd60e51b815260040161046e90612828565b805181602001fd5b6001600160e01b031916630a85bd0160e11b149050611ae8565b506001949350505050565b828054611fed90612acf565b90600052602060002090601f01602090048101928261200f5760008555612055565b82601f1061202857805160ff1916838001178555612055565b82800160010185558215612055579182015b8281111561205557825182559160200191906001019061203a565b506120619291506120d8565b5090565b82600581019282156120a5579160200282015b828111156120a55782518051612095918491602090910190611fe1565b5091602001919060010190612078565b506120619291506120ed565b6040518060a001604052806005905b60608152602001906001900390816120c05790505090565b5b8082111561206157600081556001016120d9565b80821115612061576000612101828261210a565b506001016120ed565b50805461211690612acf565b6000825580601f10612126575050565b601f016020900490600052602060002090810190611cd391906120d8565b600067ffffffffffffffff8084111561215f5761215f612b4b565b604051601f8501601f19908116603f0116810190828211818310171561218757612187612b4b565b816040528093508581528686860111156121a057600080fd5b858560208301376000602087830101525050509392505050565b600082601f8301126121ca578081fd5b6121d983833560208501612144565b9392505050565b6000602082840312156121f1578081fd5b81356121d981612b61565b6000806040838503121561220e578081fd5b823561221981612b61565b946020939093013593505050565b60008060408385031215612239578182fd5b823561224481612b61565b9150602083013561225481612b61565b809150509250929050565b600080600060608486031215612273578081fd5b833561227e81612b61565b9250602084013561228e81612b61565b929592945050506040919091013590565b600080600080608085870312156122b4578081fd5b84356122bf81612b61565b935060208501356122cf81612b61565b925060408501359150606085013567ffffffffffffffff8111156122f1578182fd5b8501601f81018713612301578182fd5b61231087823560208401612144565b91505092959194509250565b6000806040838503121561232e578182fd5b823561233981612b61565b9150602083013561225481612b76565b6000806040838503121561220e578182fd5b60006020828403121561236c578081fd5b81516121d981612b76565b600060208284031215612388578081fd5b81356121d981612b84565b6000602082840312156123a4578081fd5b81516121d981612b84565b600080600080608085870312156123c4578384fd5b843567ffffffffffffffff808211156123db578586fd5b6123e7888389016121ba565b955060208701359150808211156123fc578485fd5b612408888389016121ba565b9450604087013591508082111561241d578384fd5b5061242a878288016121ba565b949793965093946060013593505050565b60006020828403121561244c578081fd5b5035919050565b600060208284031215612464578081fd5b5051919050565b6000806040838503121561247d578182fd5b50508035926020909101359150565b600081518084526124a4816020860160208601612aa3565b601f01601f19169290920160200192915050565b8054600090600181811c90808316806124d257607f831692505b60208084108214156124f257634e487b7160e01b86526022600452602486fd5b818015612506576001811461251757612544565b60ff19861689528489019650612544565b60008881526020902060005b8681101561253c5781548b820152908501908301612523565b505084890196505b50505050505092915050565b60008551612562818460208a01612aa3565b855190830190612576818360208a01612aa3565b8551910190612589818360208901612aa3565b845191019061259c818360208801612aa3565b651e17b9bb339f60d11b91019081526006019695505050505050565b600083516125ca818460208801612aa3565b8351908301906125de818360208801612aa3565b61227d60f01b9101908152600201949350505050565b60008451612606818460208901612aa3565b64273635252760d81b9083019081528451612628816005840160208901612aa3565b612637600582840101866124b8565b661e17ba32bc3a1f60c91b8152600701979650505050505050565b60008451612664818460208901612aa3565b64273335252760d81b9083019081528451612628816005840160208901612aa3565b60008451612698818460208901612aa3565b64273530252760d81b9083019081528451612628816005840160208901612aa3565b7f646174613a6170706c69636174696f6e2f6a736f6e3b6261736536342c0000008152600082516126f281601d850160208701612aa3565b91909101601d0192915050565b6001600160a01b03858116825284166020820152604081018390526080606082018190526000906127329083018461248c565b9695505050505050565b6000602080830181845280855180835260408601915060059250604081841b870101848801865b838110156127bc57888303603f1901855281518360a081018a5b898110156127a757868203835261279582855161248c565b938b0193928b0192915060010161277d565b50968901969450505090860190600101612763565b509098975050505050505050565b6020815260006121d9602083018461248c565b6080815260006127f0608083018761248c565b8281036020840152612802818761248c565b90508281036040840152612816818661248c565b91505082606083015295945050505050565b60208082526032908201527f4552433732313a207472616e7366657220746f206e6f6e20455243373231526560408201527131b2b4bb32b91034b6b83632b6b2b73a32b960711b606082015260800190565b60208082526031908201527f4552433732313a207472616e736665722063616c6c6572206973206e6f74206f6040820152701ddb995c881b9bdc88185c1c1c9bdd9959607a1b606082015260800190565b600082198211156128de576128de612b1f565b500190565b600060ff821660ff84168060ff0382111561290057612900612b1f565b019392505050565b60008261291757612917612b35565b500490565b600060ff83168061292f5761292f612b35565b8060ff84160491505092915050565b600181815b8085111561297957816000190482111561295f5761295f612b1f565b8085161561296c57918102915b93841c9390800290612943565b509250929050565b60006121d9838360008261299757506001610361565b816129a457506000610361565b81600181146129ba57600281146129c4576129e0565b6001915050610361565b60ff8411156129d5576129d5612b1f565b50506001821b610361565b5060208310610133831016604e8410600b8410161715612a03575081810a610361565b612a0d838361293e565b8060001904821115612a2157612a21612b1f565b029392505050565b6000816000190483118215151615612a4357612a43612b1f565b500290565b600060ff821660ff84168160ff0481118215151615612a2157612a21612b1f565b600082821015612a7b57612a7b612b1f565b500390565b600060ff821660ff841680821015612a9a57612a9a612b1f565b90039392505050565b60005b83811015612abe578181015183820152602001612aa6565b838111156112ac5750506000910152565b600181811c90821680612ae357607f821691505b6020821081141561127457634e487b7160e01b600052602260045260246000fd5b6000600019821415612b1857612b18612b1f565b5060010190565b634e487b7160e01b600052601160045260246000fd5b634e487b7160e01b600052601260045260246000fd5b634e487b7160e01b600052604160045260246000fd5b6001600160a01b0381168114611cd357600080fd5b8015158114611cd357600080fd5b6001600160e01b031981168114611cd357600080fdfe3c73766720786d6c6e733d27687474703a2f2f7777772e77332e6f72672f323030302f73766727207072657365727665417370656374526174696f3d27784d696e594d696e206d656574272076696577426f783d273020302035353020323530273e3c7374796c653e2e62617365207b2066696c6c3a2077686974653b20666f6e742d66616d696c793a2073616e732d73657269663b20666f6e742d73697a653a20323270783b207d3c2f7374796c653e3c726563742077696474683d273130302527206865696768743d2731303025272066696c6c3d27626c61636b27202f3e7b226e616d65223a2022546865204c6156696520426f617264222c20226465736372697074696f6e223a202246756c6c79206f6e20636861696e2062696c6c626f6172642e2054686973204e465420646973706c61797320746865206c617465737420746578742073746f72656420696e20546865204c6156696520426f617264202833206c696e6573206f6620353020627974657320656163682920616e6420616c6c6f777320697473206f776e657220746f20636f6e74726f6c2074686520636f6e74726163742062616c616e63652e222c2022696d616765223a2022646174613a696d6167652f7376672b786d6c3b6261736536342c4142434445464748494a4b4c4d4e4f505152535455565758595a6162636465666768696a6b6c6d6e6f707172737475767778797a303132333435363738392b2f20636c6173733d27626173652720646f6d696e616e742d626173656c696e653d276d6964646c652720746578742d616e63686f723d276d6964646c65273ea2646970667358221220ae191c3fa2f1d4de509e3fc8550cdaaabb19c63307276decd3f7c8a3132c1ba264736f6c634300080400334552433732313a207472616e7366657220746f206e6f6e204552433732315265",
  "linkReferences": {},
  "deployedLinkReferences": {}
}