{
  "_format": "hh-sol-artifact-1",
  "contractName": "Game",
  "sourceName": "contracts/Game.sol",
  "abi": [
    {
      "inputs": [
        {
          "internalType": "contract Accounts",
          "name": "_accounts",
          "type": "address"
        }
      ],
      "stateMutability": "nonpayable",
      "type": "constructor"
    },
    {
      "inputs": [],
      "name": "accounts",
      "outputs": [
        {
          "internalType": "contract Accounts",
          "name": "",
          "type": "address"
        }
      ],
      "stateMutability": "view",
      "type": "function"
    },
    {
      "inputs": [],
      "name": "checkIfAddressIsAccount",
      "outputs": [
        {
          "internalType": "uint256",
          "name": "",
          "type": "uint256"
        }
      ],
      "stateMutability": "view",
      "type": "function"
    },
    {
      "inputs": [
        {
          "internalType": "address",
          "name": "player",
          "type": "address"
        },
        {
          "internalType": "uint256",
          "name": "tokenId",
          "type": "uint256"
        }
      ],
      "name": "deletePlayer",
      "outputs": [],
      "stateMutability": "nonpayable",
      "type": "function"
    },
    {
      "inputs": [
        {
          "internalType": "address",
          "name": "player",
          "type": "address"
        },
        {
          "internalType": "string",
          "name": "playerStateURI",
          "type": "string"
        },
        {
          "internalType": "uint256",
          "name": "accountType",
          "type": "uint256"
        }
      ],
      "name": "newPlayer",
      "outputs": [],
      "stateMutability": "nonpayable",
      "type": "function"
    },
    {
      "inputs": [
        {
          "internalType": "address",
          "name": "player",
          "type": "address"
        },
        {
          "internalType": "uint256",
          "name": "tokenId",
          "type": "uint256"
        },
        {
          "internalType": "uint256",
          "name": "itemId",
          "type": "uint256"
        }
      ],
      "name": "playerReceivesAnItem",
      "outputs": [],
      "stateMutability": "nonpayable",
      "type": "function"
    }
  ],
  "bytecode": "0x608060405234801561001057600080fd5b50604051610b89380380610b8983398101604081905261002f91610054565b600080546001600160a01b0319166001600160a01b0392909216919091179055610082565b600060208284031215610065578081fd5b81516001600160a01b038116811461007b578182fd5b9392505050565b610af8806100916000396000f3fe608060405234801561001057600080fd5b50600436106100575760003560e01c80630f8219cc1461005c578063673236b41461007157806368cd03f614610084578063f0971823146100b4578063f790192a146100ca575b600080fd5b61006f61006a3660046109bd565b6100dd565b005b61006f61007f3660046108cb565b6103c2565b600054610097906001600160a01b031681565b6040516001600160a01b0390911681526020015b60405180910390f35b6100bc610579565b6040519081526020016100ab565b61006f6100d8366004610992565b6105fa565b60005460405163843bd64160e01b8152600481018390526001600160a01b039091169063843bd64190602401602060405180830381600087803b15801561012357600080fd5b505af1158015610137573d6000803e3d6000fd5b505050506040513d601f19601f8201168201806040525081019061015b91906109f1565b6101ac5760405162461bcd60e51b815260206004820152601b60248201527f4c61205669653a206974656d20646f6573206e6f74206578697374000000000060448201526064015b60405180910390fd5b600054604051634f558e7960e01b8152600481018490526001600160a01b0390911690634f558e799060240160206040518083038186803b1580156101f057600080fd5b505afa158015610204573d6000803e3d6000fd5b505050506040513d601f19601f8201168201806040525081019061022891906109f1565b6102745760405162461bcd60e51b815260206004820152601c60248201527f4c61205669653a20746f6b656e20646f6573206e6f742065786973740000000060448201526064016101a3565b600054604051632b973e0960e21b8152600481018490526001600160a01b039091169063ae5cf8249060240160206040518083038186803b1580156102b857600080fd5b505afa1580156102cc573d6000803e3d6000fd5b505050506040513d601f19601f820116820180604052508101906102f091906108a8565b6001600160a01b0316336001600160a01b0316146103505760405162461bcd60e51b815260206004820152601960248201527f4c61205669653a204163636f756e74206e6f74206f776e65640000000000000060448201526064016101a3565b600054604051636e41808360e11b81526001600160a01b03858116600483015260248201859052604482018490529091169063dc83010690606401600060405180830381600087803b1580156103a557600080fd5b505af11580156103b9573d6000803e3d6000fd5b50505050505050565b60005460405163e2eb41ff60e01b81526001600160a01b0385811660048301529091169063e2eb41ff9060240160206040518083038186803b15801561040757600080fd5b505afa15801561041b573d6000803e3d6000fd5b505050506040513d601f19601f8201168201806040525081019061043f9190610a11565b1561048c5760405162461bcd60e51b815260206004820152601e60248201527f4c61205669653a20506c6179657220616c7265616479206578697374732e000060448201526064016101a3565b336001600160a01b038416146105025760405162461bcd60e51b815260206004820152603560248201527f4c61205669653a2043616e6e6f742063726561746520616e206163636f756e74604482015274103337b91030b737ba3432b91020b2323932b9b99760591b60648201526084016101a3565b80600114806105115750806002145b8061051c5750806003145b6105685760405162461bcd60e51b815260206004820152601b60248201527f4c61205669653a2057726f6e67206163636f756e7420747970652e000000000060448201526064016101a3565b610573838383610819565b50505050565b6000805460405163e2eb41ff60e01b81523360048201526001600160a01b039091169063e2eb41ff9060240160206040518083038186803b1580156105bd57600080fd5b505afa1580156105d1573d6000803e3d6000fd5b505050506040513d601f19601f820116820180604052508101906105f59190610a11565b905090565b600054604051634f558e7960e01b8152600481018390526001600160a01b0390911690634f558e799060240160206040518083038186803b15801561063e57600080fd5b505afa158015610652573d6000803e3d6000fd5b505050506040513d601f19601f8201168201806040525081019061067691906109f1565b6106c25760405162461bcd60e51b815260206004820152601c60248201527f4c61205669653a20746f6b656e20646f6573206e6f742065786973740000000060448201526064016101a3565b600054604051632b973e0960e21b8152600481018390526001600160a01b039091169063ae5cf8249060240160206040518083038186803b15801561070657600080fd5b505afa15801561071a573d6000803e3d6000fd5b505050506040513d601f19601f8201168201806040525081019061073e91906108a8565b6001600160a01b0316336001600160a01b0316146107af5760405162461bcd60e51b815260206004820152602860248201527f4c61205669653a2043616e6e6f742064656c65746520616e20756e6f776e6564604482015267081858d8dbdd5b9d60c21b60648201526084016101a3565b6000546040516311bb5b5960e11b81526001600160a01b0384811660048301526024820184905290911690632376b6b290604401600060405180830381600087803b1580156107fd57600080fd5b505af1158015610811573d6000803e3d6000fd5b505050505050565b60008054604051631801e92160e11b81526001600160a01b0390911690633003d2429061084e90879087908790600401610a29565b602060405180830381600087803b15801561086857600080fd5b505af115801561087c573d6000803e3d6000fd5b505050506040513d601f19601f820116820180604052508101906108a09190610a11565b949350505050565b6000602082840312156108b9578081fd5b81516108c481610aaa565b9392505050565b6000806000606084860312156108df578182fd5b83356108ea81610aaa565b9250602084013567ffffffffffffffff80821115610906578384fd5b818601915086601f830112610919578384fd5b81358181111561092b5761092b610a94565b604051601f8201601f19908116603f0116810190838211818310171561095357610953610a94565b8160405282815289602084870101111561096b578687fd5b82602086016020830137918201602001959095529497949650505050604092909201359150565b600080604083850312156109a4578182fd5b82356109af81610aaa565b946020939093013593505050565b6000806000606084860312156109d1578283fd5b83356109dc81610aaa565b95602085013595506040909401359392505050565b600060208284031215610a02578081fd5b815180151581146108c4578182fd5b600060208284031215610a22578081fd5b5051919050565b60018060a01b0384168152600060206060818401528451806060850152825b81811015610a6457868101830151858201608001528201610a48565b81811115610a755783608083870101525b5060408401949094525050601f91909101601f19160160800192915050565b634e487b7160e01b600052604160045260246000fd5b6001600160a01b0381168114610abf57600080fd5b5056fea26469706673582212207ae0cd2850018657d592928ac14a7e47de3ffc99f0262453ebc8505e315f238764736f6c63430008040033",
  "linkReferences": {},
  "deployedLinkReferences": {}
}