{
  "_format": "hh-sol-artifact-1",
  "contractName": "Game",
  "sourceName": "contracts/Game.sol",
  "abi": [
    {
      "inputs": [
        {
          "internalType": "contract Accounts",
          "name": "_accounts",
          "type": "address"
        },
        {
          "internalType": "contract StakeManager",
          "name": "_stakeManager",
          "type": "address"
        },
        {
          "internalType": "contract Items",
          "name": "_items",
          "type": "address"
        }
      ],
      "stateMutability": "nonpayable",
      "type": "constructor"
    },
    {
      "inputs": [
        {
          "internalType": "address",
          "name": "player",
          "type": "address"
        },
        {
          "internalType": "uint256",
          "name": "tokenId",
          "type": "uint256"
        }
      ],
      "name": "deletePlayer",
      "outputs": [],
      "stateMutability": "nonpayable",
      "type": "function"
    },
    {
      "inputs": [
        {
          "internalType": "address",
          "name": "player",
          "type": "address"
        }
      ],
      "name": "getAccountType",
      "outputs": [
        {
          "internalType": "uint8",
          "name": "",
          "type": "uint8"
        }
      ],
      "stateMutability": "view",
      "type": "function"
    },
    {
      "inputs": [
        {
          "internalType": "address",
          "name": "player",
          "type": "address"
        }
      ],
      "name": "getMaturation",
      "outputs": [
        {
          "internalType": "uint256",
          "name": "",
          "type": "uint256"
        }
      ],
      "stateMutability": "view",
      "type": "function"
    },
    {
      "inputs": [],
      "name": "getPlayerData",
      "outputs": [
        {
          "internalType": "address",
          "name": "",
          "type": "address"
        },
        {
          "internalType": "uint256",
          "name": "",
          "type": "uint256"
        },
        {
          "internalType": "uint256[]",
          "name": "",
          "type": "uint256[]"
        }
      ],
      "stateMutability": "view",
      "type": "function"
    },
    {
      "inputs": [
        {
          "internalType": "address",
          "name": "player",
          "type": "address"
        }
      ],
      "name": "getStakedAmount",
      "outputs": [
        {
          "internalType": "uint256",
          "name": "",
          "type": "uint256"
        }
      ],
      "stateMutability": "view",
      "type": "function"
    },
    {
      "inputs": [
        {
          "internalType": "address",
          "name": "player",
          "type": "address"
        }
      ],
      "name": "isStakingBool",
      "outputs": [
        {
          "internalType": "bool",
          "name": "",
          "type": "bool"
        }
      ],
      "stateMutability": "view",
      "type": "function"
    },
    {
      "inputs": [
        {
          "internalType": "address",
          "name": "player",
          "type": "address"
        },
        {
          "internalType": "string",
          "name": "playerStateURI",
          "type": "string"
        },
        {
          "internalType": "uint8",
          "name": "accountType",
          "type": "uint8"
        },
        {
          "internalType": "uint256",
          "name": "amount",
          "type": "uint256"
        },
        {
          "internalType": "uint8",
          "name": "stakeType",
          "type": "uint8"
        }
      ],
      "name": "newPlayer",
      "outputs": [],
      "stateMutability": "nonpayable",
      "type": "function"
    },
    {
      "inputs": [
        {
          "internalType": "address",
          "name": "player",
          "type": "address"
        },
        {
          "internalType": "uint256",
          "name": "tokenId",
          "type": "uint256"
        },
        {
          "internalType": "uint256",
          "name": "itemId",
          "type": "uint256"
        }
      ],
      "name": "playerReceivesAnItem",
      "outputs": [],
      "stateMutability": "nonpayable",
      "type": "function"
    },
    {
      "inputs": [
        {
          "internalType": "address",
          "name": "player",
          "type": "address"
        },
        {
          "internalType": "uint256",
          "name": "tokenId",
          "type": "uint256"
        }
      ],
      "name": "playerReceivesRandomItemFromCrate",
      "outputs": [
        {
          "internalType": "uint256",
          "name": "",
          "type": "uint256"
        }
      ],
      "stateMutability": "nonpayable",
      "type": "function"
    },
    {
      "inputs": [
        {
          "internalType": "uint64",
          "name": "vestID",
          "type": "uint64"
        }
      ],
      "name": "setVestID",
      "outputs": [],
      "stateMutability": "nonpayable",
      "type": "function"
    },
    {
      "inputs": [],
      "name": "unstake",
      "outputs": [],
      "stateMutability": "nonpayable",
      "type": "function"
    },
    {
      "inputs": [
        {
          "internalType": "address",
          "name": "player",
          "type": "address"
        },
        {
          "internalType": "uint256",
          "name": "tokenId",
          "type": "uint256"
        },
        {
          "internalType": "string",
          "name": "newTokenURI",
          "type": "string"
        },
        {
          "internalType": "uint256",
          "name": "amount",
          "type": "uint256"
        }
      ],
      "name": "updatePlayerState",
      "outputs": [],
      "stateMutability": "nonpayable",
      "type": "function"
    }
  ],
  "bytecode": "0x60806040523480156200001157600080fd5b5060405162001ce138038062001ce1833981016040819052620000349162000098565b600080546001600160a01b039485166001600160a01b0319918216179091556001805493851693821693909317909255600280549190931690821617909155600380549091167371b4f145617410ee50dc26d224d202e9278d71f117905562000104565b600080600060608486031215620000ad578283fd5b8351620000ba81620000eb565b6020850151909350620000cd81620000eb565b6040850151909250620000e081620000eb565b809150509250925092565b6001600160a01b03811681146200010157600080fd5b50565b611bcd80620001146000396000f3fe608060405234801561001057600080fd5b50600436106100b45760003560e01c80637f29df0f116100715780637f29df0f1461013d57806386dcf733146101505780639567de1e14610163578063ae20314614610176578063b273ee061461019b578063f790192a146101be57600080fd5b80630f8219cc146100b95780631cf1f4ba146100ce57806324fdad1c146100ee5780632def66201461010f5780634da6a556146101175780635698abc61461012a575b600080fd5b6100cc6100c73660046118f0565b6101d1565b005b6100d6610454565b6040516100e593929190611a2f565b60405180910390f35b6101016100fc3660046116e7565b6104e4565b6040519081526020016100e5565b6100cc610572565b6101016101253660046116e7565b6105d1565b61010161013836600461179e565b610655565b6100cc61014b366004611891565b610afb565b6100cc61015e36600461171f565b610d0f565b6100cc61017136600461195c565b6111cf565b6101896101843660046116e7565b61123f565b60405160ff90911681526020016100e5565b6101ae6101a93660046116e7565b6112bd565b60405190151581526020016100e5565b6100cc6101cc36600461179e565b61133b565b60005460405163843bd64160e01b8152600481018390526001600160a01b039091169063843bd6419060240160206040518083038186803b15801561021557600080fd5b505afa158015610229573d6000803e3d6000fd5b505050506040513d601f19601f8201168201806040525081019061024d9190611924565b61029e5760405162461bcd60e51b815260206004820152601b60248201527f4c61205669653a206974656d20646f6573206e6f74206578697374000000000060448201526064015b60405180910390fd5b600054604051634f558e7960e01b8152600481018490526001600160a01b0390911690634f558e799060240160206040518083038186803b1580156102e257600080fd5b505afa1580156102f6573d6000803e3d6000fd5b505050506040513d601f19601f8201168201806040525081019061031a9190611924565b6103365760405162461bcd60e51b815260040161029590611ac3565b600054604051632b973e0960e21b8152600481018490526001600160a01b039091169063ae5cf8249060240160206040518083038186803b15801561037a57600080fd5b505afa15801561038e573d6000803e3d6000fd5b505050506040513d601f19601f820116820180604052508101906103b29190611703565b6001600160a01b0316336001600160a01b0316146103e25760405162461bcd60e51b815260040161029590611a8c565b600054604051636e41808360e11b81526001600160a01b03858116600483015260248201859052604482018490529091169063dc83010690606401600060405180830381600087803b15801561043757600080fd5b505af115801561044b573d6000803e3d6000fd5b50505050505050565b60008054604051631ada46f160e21b815233600482015282916060916001600160a01b0390911690636b691bc49060240160006040518083038186803b15801561049d57600080fd5b505afa1580156104b1573d6000803e3d6000fd5b505050506040513d6000823e601f3d908101601f191682016040526104d991908101906117c9565b925092509250909192565b60015460405163093f6b4760e21b81526001600160a01b03838116600483015260009216906324fdad1c9060240160206040518083038186803b15801561052a57600080fd5b505afa15801561053e573d6000803e3d6000fd5b505050506040513d601f19601f820116820180604052508101906105629190611978565b67ffffffffffffffff1692915050565b60015460405163f2888dbb60e01b81523360048201526001600160a01b039091169063f2888dbb90602401600060405180830381600087803b1580156105b757600080fd5b505af11580156105cb573d6000803e3d6000fd5b50505050565b6001546040516326d352ab60e11b81526001600160a01b0383811660048301526000921690634da6a5569060240160206040518083038186803b15801561061757600080fd5b505afa15801561062b573d6000803e3d6000fd5b505050506040513d601f19601f8201168201806040525081019061064f9190611944565b92915050565b60008054604051634f558e7960e01b8152600481018490526001600160a01b0390911690634f558e799060240160206040518083038186803b15801561069a57600080fd5b505afa1580156106ae573d6000803e3d6000fd5b505050506040513d601f19601f820116820180604052508101906106d29190611924565b6106ee5760405162461bcd60e51b815260040161029590611ac3565b600054604051632b973e0960e21b8152600481018490526001600160a01b039091169063ae5cf8249060240160206040518083038186803b15801561073257600080fd5b505afa158015610746573d6000803e3d6000fd5b505050506040513d601f19601f8201168201806040525081019061076a9190611703565b6001600160a01b0316336001600160a01b03161461079a5760405162461bcd60e51b815260040161029590611a8c565b6003546040516370a0823160e01b81526001600160a01b038581166004830152686c6b935b8bbd4000009216906370a082319060240160206040518083038186803b1580156107e857600080fd5b505afa1580156107fc573d6000803e3d6000fd5b505050506040513d601f19601f820116820180604052508101906108209190611944565b101561086e5760405162461bcd60e51b815260206004820152601d60248201527f4c61205669653a204c6156782062616c616e636520746f6f206c6f77210000006044820152606401610295565b600354600154604051636eb1769f60e11b81526001600160a01b0386811660048301529182166024820152686c6b935b8bbd40000092919091169063dd62ed3e9060440160206040518083038186803b1580156108ca57600080fd5b505afa1580156108de573d6000803e3d6000fd5b505050506040513d601f19601f820116820180604052508101906109029190611944565b10156109505760405162461bcd60e51b815260206004820152601a60248201527f4c61205669653a20416c6c6f77616e636520746f6f206c6f77210000000000006044820152606401610295565b6003546001546040516323b872dd60e01b81526001600160a01b0386811660048301529182166024820152686c6b935b8bbd40000060448201529116906323b872dd90606401602060405180830381600087803b1580156109b057600080fd5b505af11580156109c4573d6000803e3d6000fd5b505050506040513d601f19601f820116820180604052508101906109e89190611924565b5060025460015460405163571018a360e11b81526001600160a01b03868116600483015260009381169263a8086d319291169063ae2031469060240160206040518083038186803b158015610a3c57600080fd5b505afa158015610a50573d6000803e3d6000fd5b505050506040513d601f19601f82011682018060405250810190610a749190611994565b6040516001600160e01b031960e084901b16815260ff9091166004820152602401602060405180830381600087803b158015610aaf57600080fd5b505af1158015610ac3573d6000803e3d6000fd5b505050506040513d601f19601f82011682018060405250810190610ae79190611944565b9050610af48484836101d1565b9392505050565b600054604051634f558e7960e01b8152600481018590526001600160a01b0390911690634f558e799060240160206040518083038186803b158015610b3f57600080fd5b505afa158015610b53573d6000803e3d6000fd5b505050506040513d601f19601f82011682018060405250810190610b779190611924565b610b935760405162461bcd60e51b815260040161029590611ac3565b600054604051632b973e0960e21b8152600481018590526001600160a01b039091169063ae5cf8249060240160206040518083038186803b158015610bd757600080fd5b505afa158015610beb573d6000803e3d6000fd5b505050506040513d601f19601f82011682018060405250810190610c0f9190611703565b6001600160a01b0316336001600160a01b031614610c3f5760405162461bcd60e51b815260040161029590611a8c565b6001546040516390fe721f60e01b81526001600160a01b03868116600483015260248201849052909116906390fe721f90604401600060405180830381600087803b158015610c8d57600080fd5b505af1158015610ca1573d6000803e3d6000fd5b5050600054604051632bfbbc4f60e11b81526001600160a01b0390911692506357f7789e9150610cd79086908690600401611afa565b600060405180830381600087803b158015610cf157600080fd5b505af1158015610d05573d6000803e3d6000fd5b5050505050505050565b60005460405163e2eb41ff60e01b81526001600160a01b0387811660048301529091169063e2eb41ff9060240160206040518083038186803b158015610d5457600080fd5b505afa158015610d68573d6000803e3d6000fd5b505050506040513d601f19601f82011682018060405250810190610d8c9190611944565b15610dd95760405162461bcd60e51b815260206004820152601e60248201527f4c61205669653a20506c6179657220616c7265616479206578697374732e00006044820152606401610295565b336001600160a01b03861614610e4f5760405162461bcd60e51b815260206004820152603560248201527f4c61205669653a2043616e6e6f742063726561746520616e206163636f756e74604482015274103337b91030b737ba3432b91020b2323932b9b99760591b6064820152608401610295565b8260ff1660011480610e6457508260ff166002145b80610e7257508260ff166003145b610ebe5760405162461bcd60e51b815260206004820152601b60248201527f4c61205669653a2057726f6e67206163636f756e7420747970652e00000000006044820152606401610295565b60ff81161580610ed157508060ff166001145b80610edf57508060ff166002145b610f2b5760405162461bcd60e51b815260206004820152601960248201527f4c61205669653a2057726f6e67207374616b6520747970652e000000000000006044820152606401610295565b8260ff1660011415610f9a578115610f955760405162461bcd60e51b815260206004820152602760248201527f4c61205669653a2043616e2774207374616b652077697468206163636f756e746044820152665479706520312160c81b6064820152608401610295565b611151565b8260ff1660021415611077578168056bc75e2d6310000014610ffe5760405162461bcd60e51b815260206004820152601b60248201527f4c61205669653a2057726f6e67207374616b6520616d6f756e742100000000006044820152606401610295565b600154604051631555214b60e21b815233600482015260248101849052603c604482015260ff831660648201526001600160a01b0390911690635554852c90608401600060405180830381600087803b15801561105a57600080fd5b505af115801561106e573d6000803e3d6000fd5b50505050611151565b8260ff166003141561115157680ad78ebc5ac62000008210156110dc5760405162461bcd60e51b815260206004820152601b60248201527f4c61205669653a2057726f6e67207374616b6520616d6f756e742100000000006044820152606401610295565b600154604051631555214b60e21b8152336004820152602481018490526078604482015260ff831660648201526001600160a01b0390911690635554852c90608401600060405180830381600087803b15801561113857600080fd5b505af115801561114c573d6000803e3d6000fd5b505050505b61115f85858560ff166115ed565b50600154604051631ca7445760e01b81526001600160a01b03878116600483015260ff8616602483015290911690631ca7445790604401600060405180830381600087803b1580156111b057600080fd5b505af11580156111c4573d6000803e3d6000fd5b505050505050505050565b6001546040516307146f0560e11b815233600482015267ffffffffffffffff831660248201526001600160a01b0390911690630e28de0a90604401600060405180830381600087803b15801561122457600080fd5b505af1158015611238573d6000803e3d6000fd5b5050505050565b60015460405163571018a360e11b81526001600160a01b038381166004830152600092169063ae2031469060240160206040518083038186803b15801561128557600080fd5b505afa158015611299573d6000803e3d6000fd5b505050506040513d601f19601f8201168201806040525081019061064f9190611994565b600154604051635939f70360e11b81526001600160a01b038381166004830152600092169063b273ee069060240160206040518083038186803b15801561130357600080fd5b505afa158015611317573d6000803e3d6000fd5b505050506040513d601f19601f8201168201806040525081019061064f9190611924565b600154604051635939f70360e11b81526001600160a01b0384811660048301529091169063b273ee069060240160206040518083038186803b15801561138057600080fd5b505afa158015611394573d6000803e3d6000fd5b505050506040513d601f19601f820116820180604052508101906113b89190611924565b156113fe5760405162461bcd60e51b81526020600482015260166024820152754c61205669653a20556e7374616b652066697273742160501b6044820152606401610295565b600054604051634f558e7960e01b8152600481018390526001600160a01b0390911690634f558e799060240160206040518083038186803b15801561144257600080fd5b505afa158015611456573d6000803e3d6000fd5b505050506040513d601f19601f8201168201806040525081019061147a9190611924565b6114965760405162461bcd60e51b815260040161029590611ac3565b600054604051632b973e0960e21b8152600481018390526001600160a01b039091169063ae5cf8249060240160206040518083038186803b1580156114da57600080fd5b505afa1580156114ee573d6000803e3d6000fd5b505050506040513d601f19601f820116820180604052508101906115129190611703565b6001600160a01b0316336001600160a01b0316146115835760405162461bcd60e51b815260206004820152602860248201527f4c61205669653a2043616e6e6f742064656c65746520616e20756e6f776e6564604482015267081858d8dbdd5b9d60c21b6064820152608401610295565b6000546040516311bb5b5960e11b81526001600160a01b0384811660048301526024820184905290911690632376b6b290604401600060405180830381600087803b1580156115d157600080fd5b505af11580156115e5573d6000803e3d6000fd5b505050505050565b60008054604051631801e92160e11b81526001600160a01b0390911690633003d24290611622908790879087906004016119fb565b602060405180830381600087803b15801561163c57600080fd5b505af1158015611650573d6000803e3d6000fd5b505050506040513d601f19601f820116820180604052508101906116749190611944565b949350505050565b600082601f83011261168c578081fd5b813567ffffffffffffffff8111156116a6576116a6611b44565b6116b9601f8201601f1916602001611b13565b8181528460208386010111156116cd578283fd5b816020850160208301379081016020019190915292915050565b6000602082840312156116f8578081fd5b8135610af481611b5a565b600060208284031215611714578081fd5b8151610af481611b5a565b600080600080600060a08688031215611736578081fd5b853561174181611b5a565b9450602086013567ffffffffffffffff81111561175c578182fd5b6117688882890161167c565b945050604086013561177981611b88565b925060608601359150608086013561179081611b88565b809150509295509295909350565b600080604083850312156117b0578182fd5b82356117bb81611b5a565b946020939093013593505050565b6000806000606084860312156117dd578283fd5b83516117e881611b5a565b809350506020808501519250604085015167ffffffffffffffff8082111561180e578384fd5b818701915087601f830112611821578384fd5b81518181111561183357611833611b44565b8060051b9150611844848301611b13565b8181528481019084860184860187018c101561185e578788fd5b8795505b83861015611880578051835260019590950194918601918601611862565b508096505050505050509250925092565b600080600080608085870312156118a6578384fd5b84356118b181611b5a565b935060208501359250604085013567ffffffffffffffff8111156118d3578283fd5b6118df8782880161167c565b949793965093946060013593505050565b600080600060608486031215611904578283fd5b833561190f81611b5a565b95602085013595506040909401359392505050565b600060208284031215611935578081fd5b81518015158114610af4578182fd5b600060208284031215611955578081fd5b5051919050565b60006020828403121561196d578081fd5b8135610af481611b72565b600060208284031215611989578081fd5b8151610af481611b72565b6000602082840312156119a5578081fd5b8151610af481611b88565b60008151808452815b818110156119d5576020818501810151868301820152016119b9565b818111156119e65782602083870101525b50601f01601f19169290920160200192915050565b6001600160a01b0384168152606060208201819052600090611a1f908301856119b0565b9050826040830152949350505050565b6001600160a01b038416815260208082018490526060604083018190528351908301819052600091848101916080850190845b81811015611a7e57845183529383019391830191600101611a62565b509098975050505050505050565b60208082526019908201527f4c61205669653a204163636f756e74206e6f74206f776e656400000000000000604082015260600190565b6020808252601c908201527f4c61205669653a20746f6b656e20646f6573206e6f7420657869737400000000604082015260600190565b82815260406020820152600061167460408301846119b0565b604051601f8201601f1916810167ffffffffffffffff81118282101715611b3c57611b3c611b44565b604052919050565b634e487b7160e01b600052604160045260246000fd5b6001600160a01b0381168114611b6f57600080fd5b50565b67ffffffffffffffff81168114611b6f57600080fd5b60ff81168114611b6f57600080fdfea264697066735822122038c648312d8ade6a92b8017a962765c031a06f754cd29f4997dece492ecb462f64736f6c63430008040033",
  "linkReferences": {},
  "deployedLinkReferences": {}
}