{
  "_format": "hh-sol-artifact-1",
  "contractName": "LaVxToken",
  "sourceName": "contracts/LaVxToken.sol",
  "abi": [
    {
      "inputs": [],
      "stateMutability": "nonpayable",
      "type": "constructor"
    },
    {
      "inputs": [
        {
          "internalType": "address",
          "name": "owner",
          "type": "address"
        },
        {
          "internalType": "address",
          "name": "spender",
          "type": "address"
        }
      ],
      "name": "allowance",
      "outputs": [
        {
          "internalType": "uint256",
          "name": "remaining",
          "type": "uint256"
        }
      ],
      "stateMutability": "view",
      "type": "function"
    },
    {
      "inputs": [
        {
          "internalType": "address",
          "name": "_spender",
          "type": "address"
        },
        {
          "internalType": "uint256",
          "name": "_value",
          "type": "uint256"
        }
      ],
      "name": "approve",
      "outputs": [
        {
          "internalType": "bool",
          "name": "success",
          "type": "bool"
        }
      ],
      "stateMutability": "nonpayable",
      "type": "function"
    },
    {
      "inputs": [
        {
          "internalType": "address",
          "name": "_owner",
          "type": "address"
        }
      ],
      "name": "balanceOf",
      "outputs": [
        {
          "internalType": "uint256",
          "name": "balance",
          "type": "uint256"
        }
      ],
      "stateMutability": "view",
      "type": "function"
    },
    {
      "inputs": [
        {
          "internalType": "address",
          "name": "_from",
          "type": "address"
        },
        {
          "internalType": "address",
          "name": "_to",
          "type": "address"
        },
        {
          "internalType": "uint256",
          "name": "_value",
          "type": "uint256"
        }
      ],
      "name": "transferFrom",
      "outputs": [
        {
          "internalType": "bool",
          "name": "success",
          "type": "bool"
        }
      ],
      "stateMutability": "nonpayable",
      "type": "function"
    }
  ],
  "bytecode": "0x608060405234801561001057600080fd5b50600080546001600160a01b0319167371b4f145617410ee50dc26d224d202e9278d71f1179055610429806100466000396000f3fe608060405234801561001057600080fd5b506004361061004c5760003560e01c8063095ea7b31461005157806323b872dd1461007957806370a082311461008c578063dd62ed3e146100ad575b600080fd5b61006461005f366004610392565b6100c0565b60405190151581526020015b60405180910390f35b610064610087366004610357565b61014e565b61009f61009a36600461030b565b6101e5565b604051908152602001610070565b61009f6100bb366004610325565b610269565b6000805460405163095ea7b360e01b81526001600160a01b038581166004830152602482018590529091169063095ea7b390604401602060405180830381600087803b15801561010f57600080fd5b505af1158015610123573d6000803e3d6000fd5b505050506040513d601f19601f8201168201806040525081019061014791906103bb565b9392505050565b600080546040516323b872dd60e01b81526001600160a01b038681166004830152858116602483015260448201859052909116906323b872dd90606401602060405180830381600087803b1580156101a557600080fd5b505af11580156101b9573d6000803e3d6000fd5b505050506040513d601f19601f820116820180604052508101906101dd91906103bb565b949350505050565b600080546040516370a0823160e01b81526001600160a01b038481166004830152909116906370a082319060240160206040518083038186803b15801561022b57600080fd5b505afa15801561023f573d6000803e3d6000fd5b505050506040513d601f19601f8201168201806040525081019061026391906103db565b92915050565b60008054604051636eb1769f60e11b81526001600160a01b03858116600483015284811660248301529091169063dd62ed3e9060440160206040518083038186803b1580156102b757600080fd5b505afa1580156102cb573d6000803e3d6000fd5b505050506040513d601f19601f8201168201806040525081019061014791906103db565b80356001600160a01b038116811461030657600080fd5b919050565b60006020828403121561031c578081fd5b610147826102ef565b60008060408385031215610337578081fd5b610340836102ef565b915061034e602084016102ef565b90509250929050565b60008060006060848603121561036b578081fd5b610374846102ef565b9250610382602085016102ef565b9150604084013590509250925092565b600080604083850312156103a4578182fd5b6103ad836102ef565b946020939093013593505050565b6000602082840312156103cc578081fd5b81518015158114610147578182fd5b6000602082840312156103ec578081fd5b505191905056fea2646970667358221220b039d50335a89f1ca134f9facd9f4189ccb1d705bef72c2e40fed7f17ccf21d364736f6c63430008040033",
  "linkReferences": {},
  "deployedLinkReferences": {}
}