{
    "_format": "hh-sol-artifact-1",
    "contractName": "LaVxToken",
    "sourceName": "contracts/LaVxToken.sol",
    "abi": [
        {
            "inputs": [],
            "stateMutability": "nonpayable",
            "type": "constructor"
        },
        {
            "inputs": [
                {
                    "internalType": "address",
                    "name": "owner",
                    "type": "address"
                },
                {
                    "internalType": "address",
                    "name": "spender",
                    "type": "address"
                }
            ],
            "name": "allowance",
            "outputs": [
                {
                    "internalType": "uint256",
                    "name": "remaining",
                    "type": "uint256"
                }
            ],
            "stateMutability": "view",
            "type": "function"
        },
        {
            "inputs": [
                {
                    "internalType": "address",
                    "name": "_spender",
                    "type": "address"
                },
                {
                    "internalType": "uint256",
                    "name": "_value",
                    "type": "uint256"
                }
            ],
            "name": "approve",
            "outputs": [
                {
                    "internalType": "bool",
                    "name": "success",
                    "type": "bool"
                }
            ],
            "stateMutability": "nonpayable",
            "type": "function"
        },
        {
            "inputs": [
                {
                    "internalType": "address",
                    "name": "_owner",
                    "type": "address"
                }
            ],
            "name": "balanceOf",
            "outputs": [
                {
                    "internalType": "uint256",
                    "name": "balance",
                    "type": "uint256"
                }
            ],
            "stateMutability": "view",
            "type": "function"
        }
    ],
    "bytecode": "0x608060405234801561001057600080fd5b50600080546001600160a01b0319167371b4f145617410ee50dc26d224d202e9278d71f1179055610339806100466000396000f3fe608060405234801561001057600080fd5b50600436106100415760003560e01c8063095ea7b31461004657806370a082311461006e578063dd62ed3e1461008f575b600080fd5b6100596100543660046102a2565b6100a2565b60405190151581526020015b60405180910390f35b61008161007c366004610256565b610130565b604051908152602001610065565b61008161009d366004610270565b6101b4565b6000805460405163095ea7b360e01b81526001600160a01b038581166004830152602482018590529091169063095ea7b390604401602060405180830381600087803b1580156100f157600080fd5b505af1158015610105573d6000803e3d6000fd5b505050506040513d601f19601f8201168201806040525081019061012991906102cb565b9392505050565b600080546040516370a0823160e01b81526001600160a01b038481166004830152909116906370a082319060240160206040518083038186803b15801561017657600080fd5b505afa15801561018a573d6000803e3d6000fd5b505050506040513d601f19601f820116820180604052508101906101ae91906102eb565b92915050565b60008054604051636eb1769f60e11b81526001600160a01b03858116600483015284811660248301529091169063dd62ed3e9060440160206040518083038186803b15801561020257600080fd5b505afa158015610216573d6000803e3d6000fd5b505050506040513d601f19601f8201168201806040525081019061012991906102eb565b80356001600160a01b038116811461025157600080fd5b919050565b600060208284031215610267578081fd5b6101298261023a565b60008060408385031215610282578081fd5b61028b8361023a565b91506102996020840161023a565b90509250929050565b600080604083850312156102b4578182fd5b6102bd8361023a565b946020939093013593505050565b6000602082840312156102dc578081fd5b81518015158114610129578182fd5b6000602082840312156102fc578081fd5b505191905056fea2646970667358221220dcaa33da4b9a3e4c419ca5a4cd6eda5bc8602ac027448d2dfa0a18cab149c0ea64736f6c63430008040033",
    "linkReferences": {},
    "deployedLinkReferences": {}
}